{
  "contractName": "LotteryVishal",
  "abi": [
    {
      "inputs": [],
      "stateMutability": "nonpayable",
      "type": "constructor"
    },
    {
      "inputs": [],
      "name": "getCreditLimit",
      "outputs": [
        {
          "internalType": "uint256",
          "name": "",
          "type": "uint256"
        }
      ],
      "stateMutability": "view",
      "type": "function"
    },
    {
      "inputs": [
        {
          "internalType": "uint256",
          "name": "travelCost",
          "type": "uint256"
        },
        {
          "internalType": "uint256",
          "name": "stayCost",
          "type": "uint256"
        },
        {
          "internalType": "uint256",
          "name": "foodCost",
          "type": "uint256"
        }
      ],
      "name": "expenditure",
      "outputs": [],
      "stateMutability": "nonpayable",
      "type": "function"
    },
    {
      "inputs": [],
      "name": "resetCreditLimit",
      "outputs": [],
      "stateMutability": "nonpayable",
      "type": "function"
    }
  ],
  "bytecode": "0x608060405261271060005534801561001657600080fd5b5061271060008190555061034c8061002f6000396000f3fe608060405234801561001057600080fd5b50600436106100415760003560e01c806306f21e6f1461004657806350a7cba614610050578063f78be85a1461006c575b600080fd5b61004e61008a565b005b61006a6004803603810190610065919061015f565b610095565b005b61007461011b565b60405161008191906101c1565b60405180910390f35b612710600081905550565b60008282856100a4919061020b565b6100ae919061020b565b90506000816000546100c0919061023f565b1015610101576040517f08c379a00000000000000000000000000000000000000000000000000000000081526004016100f8906102f6565b60405180910390fd5b8060005461010f919061023f565b60008190555050505050565b60008054905090565b600080fd5b6000819050919050565b61013c81610129565b811461014757600080fd5b50565b60008135905061015981610133565b92915050565b60008060006060848603121561017857610177610124565b5b60006101868682870161014a565b93505060206101978682870161014a565b92505060406101a88682870161014a565b9150509250925092565b6101bb81610129565b82525050565b60006020820190506101d660008301846101b2565b92915050565b7f4e487b7100000000000000000000000000000000000000000000000000000000600052601160045260246000fd5b600061021682610129565b915061022183610129565b9250828201905080821115610239576102386101dc565b5b92915050565b600061024a82610129565b915061025583610129565b925082820390508181111561026d5761026c6101dc565b5b92915050565b600082825260208201905092915050565b7f546f74616c20636f73742065786365656465642074686520637265646974206c60008201527f696d697400000000000000000000000000000000000000000000000000000000602082015250565b60006102e0602483610273565b91506102eb82610284565b604082019050919050565b6000602082019050818103600083015261030f816102d3565b905091905056fea26469706673582212209478c5289b2eb00d7e1ef588db59bc3ebe0ae16ba8f0742c310fb9197d0eb37264736f6c63430008110033",
  "immutableReferences": {},
  "source": "// SPDX-License-Identifier: GPL-3.0\r\n//Vishal Gondke 2019140025 BE IT\r\npragma solidity ^0.8.17;\r\n\r\ncontract LotteryVishal {\r\n    uint creditLimit = 10000;\r\n    constructor(){\r\n        creditLimit=10000;\r\n    }\r\n    function getCreditLimit()public view returns (uint){\r\n        return creditLimit;\r\n    }\r\n\r\n    function expenditure(uint travelCost,uint stayCost, uint foodCost)public{\r\n        uint totalExpenditure= travelCost+foodCost+stayCost;\r\n        require(creditLimit-totalExpenditure>=0,\"Total cost exceeded the credit limit\");\r\n        creditLimit=creditLimit-totalExpenditure;\r\n    }\r\n    \r\n    function resetCreditLimit() public{\r\n        creditLimit=10000;\r\n    }\r\n}",
  "sourcePath": "C:\\Users\\visha\\Desktop\\BCT\\truffleTutorial\\New\\contracts\\credit.sol",
  "compiler": {
    "name": "solc",
    "version": "0.8.17+commit.8df45f5f.Emscripten.clang"
  },
  "schemaVersion": "3.4.10",
  "updatedAt": "2022-11-01T09:55:25.958Z",
  "devdoc": {
    "kind": "dev",
    "methods": {},
    "version": 1
  },
  "userdoc": {
    "kind": "user",
    "methods": {},
    "version": 1
  }
}